:200000000C947E000C94A6000C94A6000C94A6000C94A6000C94A6000C94A6000C94A600D8
:200020000C94A6000C94A6000C94A6000C94A6000C94A6000C94A6000C94A6000C94A60090
:200040000C9462150C94A6000C94F1140C9426150C94A6000C94A6000C94A6000C94A600AB
:200060000C94A6000C94A600626175640000256C640000636F6E6669672E74787400636F8D
:200080006E6669672E7478740020004C4F47253035642E545854007C3C3E5E2B3D3F2F5B8B
:2000A0005D3B2C2A225C00000000080002010000030407000000000000000001020408109C
:2000C00020408001020408102001020408102004040404040404040202020202020303038D
:2000E00003030300000000250028002B0000000000240027002A000049057F0511241FBE26
:20010000CFEFD8E0DEBFCDBF11E0A0E0B1E0ECE4F5E302C005900D92A833B107D9F726E037
:20012000A8E3B1E001C01D92A13EB207E1F710E0CCEFD0E004C02297FE010E948D17C83F9F
:20014000D107C9F70E944E170C94A41A0C9400008091C00085FFFCCF6093C60081E090E058
:200160000895CF92DF92EF92FF920F931F93CF93DF938C017A01EB016B01C40ED51ECC15D0
:20018000DD0551F06991D801ED91FC910190F081E02DC8010995F3CFC701DF91CF911F91DE
:2001A0000F91FF90EF90DF90CF900895089504960C94550ECF93DF931F92CDB7DEB7BE018F
:2001C0006F5F7F4F8FEC96E00E945614882319F0898190E002C08FEF9FEF0F90DF91CF911B
:2001E00008958FEC96E00C9443148FEC96E00C94C0140C94B1190C94B919EF92FF920F9385
:200200001F93CF93DF938C017C0180E8E80EF11CE801CE15DF0550F0CE01801B910BDF917D
:20022000CF911F910F91FF90EF9008952091D1063091D2068091D3069091D40628173907DE
:2002400059F3A7014C1B5D0BBE018FEC96E00E947714C80FD91FDDCFCF92DF92EF92FF929F
:200260006B017C011092C10086E08093C20060E079E08DE390E0A70196010E945E17C9015E
:20028000213060E2360730F4C11461EED606E104F10431F41092C000C9019695879503C035
:2002A00022E02093C0000197969587959093C5008093C40088E98093C100FF90EF90DF9069
:2002C000CF900895FC01148216821382128282E291E0918380830895CF92DF92EF92FF9261
:2002E0000F931F93CF93DF93CDB7DEB76E970FB6F894DEBF0FBECDBFCE0101960E94620106
:2003000083E090E00E94F900F82E84E090E00E94F9000F2D10E0182B9FEFF9120EC08F3F36
:2003200061F460E083E090E00E94FB0060E084E090E00E94FB0000E010E04BE8E42E40E0D2
:20034000F42E58E3C52E51E0D52E1F930F93FF92EF92DF92CF920E94BD1722EC48E351E001
:200360006DE471E0CE0105960E94770D0F900F900F900F900F900F9081111FC021E048E3F4
:2003800051E06DE471E0CE0105960E94770D882389F08F89988DA98DBA8D892B8A2B8B2BFD
:2003A00029F4CE0105960E94550B1DC0CE0105960E94550B0F5F1F4FC8CFCE0105960E94EC
:2003C000550B0F5F1F4F602F83E090E00E94FB0084E090E00E94F900811729F0612F84E0CE
:2003E00090E00E94FB0088E391E06E960FB6F894DEBF0FBECDBFDF91CF911F910F91FF901A
:20040000EF90DF90CF900895C0E0D0E0082F10E0C017D107B4F461E085E00E94B21668ECC0
:2004200070E080E090E00E94DB1560E085E00E94B21668EC70E080E090E00E94DB1521963E
:20044000E7CF60ED77E080E090E00E94DB15C0E0D0E0DECFCF93DF93CDB7DEB7CE59D109F5
:200460000FB6F894DEBF0FBECDBF7C01CE018F579F4F0E94620101E810E00C0F1D1F0C5F75
:200480001F4F26E4A7016DE471E0C8010E94770D811103C083E00E940402C956DF4F488135
:2004A00059816A817B81C759D040452B462B472B49F440E050E0BA01C8010E94B609C801BD
:2004C0000E94090B61E085E00E94B2160E94AC156B017C010E94AC154B015C0160E2762E18
:2004E00001E810E00C0F1D1F0C5F1F4F0E94AC15681979098A099B0964317105810591052F
:2005000050F00E94AC154B015C0169E870E086E891E00E942617CE0101960E94FD00882380
:2005200029F3AC015527BE016F5F7F4FCE018F579F4F0E94D7008BB187258BB90E94AC1570
:200540006C197D098E099F09693873418105910568F2C8010E94090B0E94AC156B017C01BB
:20056000C5CF0E946C010E942A02CF92DF92EF92FF926B017C016E2D89E090E00E94FB002C
:200580009927F7FC9A958F2D7E2D6D2D8AE090E00E94FB006C2D8BE090E0FF90EF90DF9010
:2005A000CF900C94FB00CF93DF9389E090E00E94F900C82F8AE090E00E94F900D82F8BE01B
:2005C00090E00E94F9004D2F50E060E070E0762F652F542F44276C2B482BCB01BA01DF91AC
:2005E000CF9108950F931F930E94D3028B019C010C52114021093109053111442F403105C7
:2006000058F4609345017093460180934701909348011F910F91089580E092ECA1E0B0E068
:200620008093450190934601A0934701B093480160E072EC81E090E01F910F910C94B502DA
:200640000F931F93CF93DF93CDB7DEB7C355D1090FB6F894DEBF0FBECDBFCE014F960E94CA
:200660006201CE0101960E94620167E671E0CE0183960E94C10A811103C083E00E94040259
:2006800063E770E0CE01CD960E94A01722E0AE01435C5F4FBE016D5D7F4FCE0105960E94D4
:2006A000770D882339F0CE0105960E94390E882309F452C026E4AE01435C5F4FBE016D5D46
:2006C0007F4FCE0105960E94770D882309F444C00E94D3029F938F937F936F938EE690E04D
:2006E0009F938F938E01095B1F4F1F930F930E94BD17F80101900020E9F7AF014150510956
:20070000401B510BB801CE0101960E94F10FF80101900020E9F73197E01BF10B0FB6F894C7
:20072000DEBF0FBECDBF8E179F0721F0CE0101960E94491768E670E0CE01815B9F4F0E9426
:20074000A017BE01615B7F4FCE0101960E94F40FCE0105960E94090BCE0105960E94550B02
:20076000CE0183960E94550BCD5ADF4F0FB6F894DEBF0FBECDBFDF91CF911F910F91089536
:20078000CF93FC0120E030E0A901C19180ED8C0F8A3098F4AAE0B0E00E9480172C2F332798
:2007A00027FD309520533109442737FD4095542F260F371F481F591FE8CFCA01B901CF91A6
:2007C00008958F929F92AF92BF92CF92DF92EF92FF920F931F93CF93DF93CDB7DEB7C65558
:2007E000D1090FB6F894DEBF0FBECDBFCE014F960E946201CE0101960E94620167E671E016
:20080000CE0183960E94C10A811103C083E00E9404026EE770E0CE01CD960E94A01721E0F2
:20082000AE01435C5F4FBE016D5D7F4FCE0105960E94770D882341F07E012FE4E20EF11C6A
:2008400000E010E0570111C0CE0105960E94550BCE0183960E94550B82C0F70181937F017B
:200860000F5F1F4F0830110531F0CE0105960E949F09181694F3CE0105960E94550BCE0189
:2008800083960E94550B912C30E0C12CA2ECDA2EEE24E394F12C832F90E0801791070CF0FA
:2008A00041C0FE01E95BFF4F20E0822E830E882D90E0D501A80FB91F4C914C3241F08017B8
:2008C00091072CF4263019F041932F5FEECFE7E4F0E0EC0FFD1FE20FF11D108291101EC020
:2008E000CE01895B9F4F0E94C0036B017C01FCE2CF1AF1E0DF0AE108F10825E1C21621E4C3
:20090000D2062FE0E206F10418F46B017C0106C0C12CF2ECDF2EEE24E394F12C939431E0A2
:20092000380DB9CF8091450190914601A0914701B0914801C816D906EA06FB0691F0C70131
:20094000B6010E94B502C0924501D0924601E0924701F0924801C701B6010E942C010E94D1
:200960002003CA5ADF4F0FB6F894DEBF0FBECDBFDF91CF911F910F91FF90EF90DF90CF90BF
:20098000BF90AF909F908F90089561E085E00E94791680917A008F7780937A0080E880BF42
:2009A0008FE380937E0083E080937F00809164008068809364008091640088608093640097
:2009C00080916400806480936400809164008160809364000E94F202609145017091460165
:2009E00080914701909148010E942C018091450190914601A0914701B0914801843F21E0DF
:200A00009207A105B105D4F49C01AD01B4E0220F331F441F551FBA95D1F760E074E284EFC0
:200A200090E00E945E17215031093093C5002093C4008091C0008D7F8093C00042E06AE069
:200A400081E891E00E9465068823F1F041E061E871E087E691E00E943613811109C040E024
:200A600061E871E087E691E00E943613882361F08DE491E00E94550B67E671E08DE491E0B3
:200A80000E94C10A811103C083E00E9404020C94E103109289011092880188EE93E0A0E045
:200AA000B0E080938A0190938B01A0938C01B0938D018AE091E0909387018093860141E285
:200AC00053E062E971E08FEC96E00E94B61489E1809382011092850110927A0189E491E0C7
:200AE0000C9462018091C10085FDFCCF8091C00085FFF8CF6093C60081E090E008951092EF
:200B0000B7041092B6048AE191E09093B5048093B40408958FEF8EBD0DB407FEFDCF8EB500
:200B200008958EBD0DB407FEFDCF089561E0FC0180810E94B2168FEF0C949105CF93DF936D
:200B4000EC016A8188EB94E00E94141060E08881DF91CF910C94B216CF92DF92EF92FF92AB
:200B60000F931F93CF93DF93EC018B017A010E94AC156B010E948A058B838F3F49F40E949E
:200B8000AC156C197D096D327140A0F381E103C08E3F39F08FE08983CE010E94960580E0A4
:200BA00028C0E114F104E1F081E0E81AF1088FEF8EBDF8012FEFCF01801B910B8E159F0508
:200BC00038F40DB407FEFDCF8EB52EBD8193F3CF0DB407FEFDCF8EB5F801EE0DFF1D80836B
:200BE0001B820E948A050E948A05CE010E94960581E0DF91CF911F910F91FF90EF90DF90EC
:200C0000CF9008950F931F93CF93DF93EB010E94AC158B010E948A058F3F49F00E94AC153A
:200C2000601B710B6C177D07A8F380E001C081E0DF91CF911F910F910895FF920F931F93F7
:200C4000CF93DF9300D000D0CDB7DEB78C01F62E29833A834B835C830E949E0568E572E05C
:200C6000C8010E9402068F2D80640E9491058C810E9491058B810E9491058A810E9491055D
:200C800089810E949105F11002C085E901C087E80E9491058CE0F81202C00E948A05F12CF3
:200CA0000E948A05F801838387FF05C0FFEFFF1611F0F394F5CF0F900F900F900F90DF917E
:200CC000CF911F910F91FF900895BF92CF92DF92EF92FF920F931F93CF93DF93EC01B42E0C
:200CE0001C82198268830E94AC158B0161E088810E94791661E088810E94B21688EB94E0CB
:200D00000E94001080E48A8360E488EB94E00E9414102AE0F22E8FEF0E949105FA94D9F781
:200D200020E030E0A90160E0CE010E941D06813049F00E94AC15601B710B613D774080F319
:200D400081E051C02AEA31E040E050E068E0CE010E941D06853011F481E00AC094E0F92E50
:200D60000E948A058B83FA94D9F78A3A59F482E08C838C81823079F4C12CD12CE12C80E4CD
:200D8000F82E0CC00E94AC15601B710B613D7740C8F282E028C0C12CD12C760120E030E03D
:200DA000A90167E3CE010E941D06A701960169E2CE010E941D06882349F00E94AC15601BCB
:200DC000710B613D774050F38AE00DC08C818230E9F420E030E0A9016AE3CE010E941D0691
:200DE000882339F088E08983CE010E94960580E012C00E948A05807C803C11F483E08C830D
:200E00000E948A050E948A050E948A05CE010E949605BA8281E0DF91CF911F910F91FF90E7
:200E2000EF90DF90CF90BF9008950F931F93CF93DF93EC0189018C81833039F039E0440F85
:200E4000551F661F771F3A95D1F79A01AB0161E1CE010E941D0681110AC040E052E0B801E8
:200E6000CE01DF91CF911F910F910C94AC0584E08983CE010E94960580E0DF91CF911F91D6
:200E80000F9108950F931F93CF93DF93EC01862F8A010E949105F80180818EBD818122E03F
:200EA00030E00DB407FEFDCF8EBD2115F2E03F0739F0F801E20FF31F80812F5F3F4FF1CFF5
:200EC0000DB407FEFDCF8FEF0E9491058FEF0E9491050E948A058B838F71853039F083E193
:200EE0008983CE010E94960580E001C081E0DF91CF911F910F9108950F931F93CF93DF9373
:200F0000EC0189018C81833039F089E0440F551F661F771F8A95D1F79A01AB0168E1CE01E0
:200F20000E941D06882319F086E089830CC0A8016EEFCE010E944207182F882321F0CE0168
:200F40000E94960504C0CE010E94960510E0812FDF91CF911F910F910895CF93DF93EC0166
:200F60009C012A5F3F4F41E050E060E070E08C819D810E94D311882399F04E895F89688D43
:200F8000798D452B462B472B59F44E815F81688579854E8B5F8B688F798F99819068998321
:200FA000DF91CF910895BF92CF92DF92EF92FF920F931F93CF93DF93EC018A899B89AC890E
:200FC000BD89803E9F4FAF41B105A8F4CE010E94AD07882381F04E815F81688579858C81F5
:200FE0009D810E94CF106B017C0145E00E947B108C01009719F480E090E037C080E092E04D
:20100000F8019C01119221503040E1F7BB24B394EC81FD818481B81688F49801B701A60186
:201020004B0D511D611D711D8091BB049091BC040E947C078823F9F2B394EACF90E0A0E082
:20104000B0E029E0880F991FAA1FBB1F2A95D1F74A895B896C897D89480F591F6A1F7B1FDA
:201060004A8B5B8B6C8B7D8BC801DF91CF911F910F91FF90EF90DF90CF90BF900895CF93A3
:20108000DF93EC01462F6E857F85888999890E947B10009739F02B8130E2239F800D911DAA
:2010A000112402C080E090E0DF91CF910895FB012BE030E231932150E9F7DC0190E027E07A
:2010C0003A2FEB2F8D9181110AC0DA013C931196EC9381E0FB019081903239F525C08F323F
:2010E000A1F38E3219F0E7E9F0E008C02A30E1F098E02AE0E5CF31963817B1F0349131110C
:20110000FACF291788F03FED380F3E3568F431E0390FFB01E90FF11D9FE9980F9A3108F4BB
:2011200080528083932FCCCF80E008952F923F924F925F926F927F928F929F92AF92BF9226
:20114000CF92DF92EF92FF920F931F93CF93DF9300D000D0CDB7DEB79C838B836B017A01B6
:20116000FC018281811103C08FEF9FEFD1C0EB81FC81818180FFF8CFEB81FC8142895389BC
:201180006489758982859385A485B5854701A12CB12C8A019B01081B190B2A0B3B0B801671
:2011A0009106A206B30618F07A01E81AF90A87018B819C8106969A838983812CF2E09F2EED
:2011C0000115110509F46AC0EB81FC8142855385648575855A01F1E0BF22EB81FC81848156
:2011E0009581FC0175801A012B01E9E05694479437942794EA95D1F7EB81FC812281223067
:2012000051F4FC0166897789808D918D620D731D841D951D2EC07220A114B104E1F47110E0
:201220001AC0EB81FC81452B462B472B49F486899789A08DB18D86839783A087B1870BC074
:20124000468157816085718529813A810E94E710882309F489CFEB81FC81468157816085A9
:201260007185848195810E94CF10670D711D811D911DA114B104A1F40115F2E01F0780F011
:201280004090BE045090BF046090C0047090C1046415750586059705C9F402C0C70138C047
:2012A00094012A193B0938012017310708F4390140E00E947B10009709F456CFBC016A0DFA
:2012C0007B1DA301C6010E94B4170FC09601AB01BC018091BB049091BC040E9415078823B5
:2012E00009F442CF612C32E0732EC60CD71CEB81FC8182859385A485B585860D971DA11D6B
:20130000B11D82879387A487B5870619170958CF0F900F900F900F90DF91CF911F910F9173
:20132000FF90EF90DF90CF90BF90AF909F908F907F906F905F904F903F902F900895CF938C
:20134000DF931F92CDB7DEB741E050E0BE016F5F7F4F0E949608019719F4898190E002C084
:201360008FEF9FEF0F90DF91CF9108954F925F926F927F92AF92BF92CF92DF92EF92FF92FB
:201380000F931F93CF93DF93EC016A017B012A81222349F08A899B89AC89BD89841795073F
:2013A000A607B70710F480E06CC0223009F464C0C114D104E104F10449F41E821F8218861F
:2013C00019861A861B861C861D865AC08A859B85AC85BD85EC81FD81E285F0E03996AC018E
:2013E000BD0141505109610971090E2E04C076956795579547950A94D2F7970186010150BA
:2014000011092109310904C03695279517950795EA95D2F7041715072607370720F0892B0D
:201420008A2B8B2B49F48E899F89A88DB98D8E839F83A887B98704C0041B150B260B370B32
:20144000280139015E0186E0A80EB11C411451046104710489F04E815F81688579859501B4
:201460008C819D810E94E71091E0491A5108610871088111EBCF05C0CA86DB86EC86FD86E2
:2014800081E0DF91CF911F910F91FF90EF90DF90CF90BF90AF907F906F905F904F900895E8
:2014A000AF92BF92CF92DF92EF92FF920F931F93CF93DF9300D000D0CDB7DEB78C01FC014B
:2014C00086899789A08DB18D89839A83AB83BC83A12CB12C49815A816B817C819E012F5F77
:2014E0003F4FD80114968D919C9115970E94E7108823C1F1D8011496ED91FC9115978481AF
:20150000A80EB11CA114B0E1BB0658F5C980DA80EB80FC808389803149F481E0E8EFCE1654
:20152000EFEFDE06E104F10450F4D4CF81E0F8EFCF16FFEFDF06EF06FFE0FF0658F2A5015F
:2015400060E070E099E0440F551F661F771F9A95D1F7D80152964D935D936D937C9355971D
:2015600001C080E00F900F900F900F90DF91CF911F910F91FF90EF90DF90CF90BF90AF9044
:201580000895CF93DF93EC01FB018A81882311F080E03CC07D836C838389803109F1803286
:2015A000B9F783E08A8346895789608D718D4E8B5F8B688F798FCE010E94500A882341F305
:2015C00081E089831E821F82188619861A861B861C861D861E861F86188A198A1B8216C099
:2015E00082E08A831E8A1F8A188E198E4489558960E070E025E0440F551F661F771F2A95FD
:20160000D1F74A8B5B8B6C8B7D8BDACFDF91CF9108950F931F93CF93DF93EC018A81882367
:20162000E1F1898187FF33C061E0CE010E943F088C01009791F1FC018081853E71F18A8188
:20164000823040F44A895B896C897D89448F558F668F778F4E895F89688D798DF801538FAB
:20166000428F758B648BE091B904F091BA04309759F0B8016A5E7F4FC80148960995F801A0
:20168000808D918D938B828B89818F778983DF91CF911F910F910C942C1081E0888380E010
:2016A000DF91CF911F910F910895CF93DF93EC010E94090B1A82DF91CF9108954F925F921B
:2016C0006F927F92AF92BF92CF92DF92EF92FF920F931F93CF93DF9300D000D0CDB7DEB7A1
:2016E0005C016A017B01FC0182818130F1F4818181FF1BC0F50182899389A489B589841790
:201700009507A607B70788F0892B8A2B8B2B09F479C0F5014284538464847584B701A60122
:20172000C5010E94B609811102C080E06CC0F50184819581C114D104E104F10471F44689D9
:201740005789608D718D0E94D812882371F3F501168A178A108E118E3AC0F5014681578120
:20176000608571859E012F5F3F4F0E94E7108823E1F249815A816B817C81F501848195811D
:20178000FC012389203139F4483FFFEF5F0761057105E8F407C0483F2FEF520762072FE052
:2017A0007207A8F40E94D812882309F4BECFF50146815781608571850FEF1FEF2FEF3FE09A
:2017C000848195810E946011882309F4AECFF501C28AD38AE48AF58A818180688183C50176
:2017E0000E94090B882309F4A0CFB701A6014C145D046E047F0410F4B301A201C5010E9444
:20180000B60901C081E00F900F900F900F90DF91CF911F910F91FF90EF90DF90CF90BF9020
:20182000AF907F906F905F904F900895BF92CF92DF92EF92FF920F931F93CF93DF93EC01A6
:20184000B42E80E2689FF0011124EE53FB4F8385817121F0842F827109F04BC08091BE0404
:201860009091BF04A091C004B091C1048E879F87A88BB98B6B830489158920E030E0980115
:2018800011270027C28CD38CE12CF12C0C291D292E293F290E8B1F8B288F398F8385887115
:2018A00051F4048D158D268D378D0A8B1B8B2C8B3D8B81E008C08031E1F4CE010E94500A05
:2018C0008823B9F084E08A838B2D8F7089831E821F82188619861A861B861C861D86B4FECA
:2018E0000BC040E050E0BA01CE010E945E0B811103C01A8280E013C0B5FE10C04A895B89DA
:201900006C897D89CE01DF91CF911F910F91FF90EF90DF90CF90BF900C94B60981E0DF9182
:20192000CF911F910F91FF90EF90DF90CF90BF9008955F926F927F928F929F92AF92BF9248
:20194000CF92DF92EF92FF920F931F93CF93DF937C01EB016A01622E8C819D81F7019583DC
:20196000848340E050E0BA01CE010E94B609712C4A855B856C857D858A899B89AC89BD8934
:20198000481759076A077B0708F056C0CE010E949F0997FD9BC00A851B852C853D8501508C
:2019A0001E4F2F4F3F4F0A871B872C873D878090BE049090BF04A090C004B090C10402EC68
:2019C00014E0512CF8018081882311F0853E79F4711006C0F70186869786A08AB18A53821E
:2019E000F801808177247394811109C025C04BE050E0B801C6010E94A717892B39F053940C
:201A0000005E1F4FF0E15F12DDCFB2CF67FC5EC0462D652DC701DF91CF911F910F91FF908E
:201A2000EF90DF90CF90BF90AF909F908F907F906F905F900C94160C862D8274823409F066
:201A400045C0772051F0F701538061E0C7010E943F08EC01009759F439C08A818230B1F1C3
:201A6000CE010E94D307009789F1EC01512C80E2FE0111928A95E9F78BE0F601DE010190CB
:201A80000D928A95E1F7E091B904F091BA04309739F0BE01625F7F4FCE014096099508C0FA
:201AA00081E298E2998B888B80E098E09F878E87888999899B8B8A8B998F888F8E859F851B
:201AC0009F8B8E8B0E942C108111A2CF80E0DF91CF911F910F91FF90EF90DF90CF90BF9037
:201AE000AF909F908F907F906F905F9008953F924F925F926F927F928F929F92AF92BF9226
:201B0000CF92DF92EF92FF920F931F93CF93DF93CDB7DEB7C154D1090FB6F894DEBF0FBEF6
:201B2000CDBF5C016B0122965FAF4EAF2297522E1B8E1D8E19821B826115710511F480E077
:201B40007FC0FC0182818111FACF2296EEADFFAD229780818F3211F0760126C02296EEADC0
:201B6000FFAD229780818F3231F431962296FFAFEEAF2297F3CFF601811106C064817581AA
:201B8000C5010E94C10A5CC082818250823020F3F60164817581CE0101960E94C10A88230C
:201BA00071F2CE0101967C018E01055E1F4F3801FE0131964F01402E312E1BC08823C1F12B
:201BC00021E0AE014B5C5F4FB701C8010E94990C882309F4B4CFEC14FD0419F0C7010E9499
:201BE000550B0615170509F1942D832D7801092F182FAE01405C5F4FBE016B5C7F4F2296E6
:201C00008EAD9FAD22970E945708882309F497CF2296EEADFFAD229780818F3279F63196C5
:201C20002296FFAFEEAF2297F3CF982D892DDECF252DAE014B5C5F4FB701C5010E94990CE3
:201C4000CF5BDF4F0FB6F894DEBF0FBECDBFDF91CF911F910F91FF90EF90DF90CF90BF909A
:201C6000AF909F908F907F906F905F904F903F900895CF93DF93EC0140E050E0BA010E9421
:201C80005E0B882371F061E0CE010E943F08009741F025EEFC0120831A82DF91CF910C944F
:201CA0002C1080E0DF91CF9108952F923F924F925F926F927F928F929F92AF92BF92CF9260
:201CC000DF92EF92FF920F931F93CF93DF93CDB7DEB762970FB6F894DEBF0FBECDBF8C0173
:201CE0004B015A01FC0182818130C1F4818181FF15C082FF19C0F80142895389648975899B
:201D000082859385A485B58584179507A607B70759F0C8010E94B609811106C081E0F8017A
:201D200080838FEF9FEF2BC1A50160E070E0F80182859385A485B58580959095A095B09543
:201D400084179507A607B70748F36501212C32E0332E71C0F80184819581B301A20129E0DB
:201D600076956795579547952A95D1F7FC01F580F422920131703A8B298BFF2009F465C097
:201D8000F8014681578160857185848195810E94CF106F0D711D811D911D49885A884528BE
:201DA00009F097C0C11422E0D20608F099C0F80142845384648475844D825E826F827886BE
:201DC00042885388648875882D813E814F815885241535054605570508F47BC045E00E9443
:201DE0007B10009709F49ACF310149885A886418750876016C147D0408F47301A701B40138
:201E000049885A88840D951D0E94B417E614F70409F461C0F80182859385A485B5858E0D36
:201E20009F1DA11DB11D82879387A487B5878E0C9F1CCE18DF08F801428453846484758437
:201E4000C114D10409F086CF72C0232B09F098CFF801468157816085718541155105610525
:201E6000710511F19E012F5F3F4F0E94E710882309F454CF89819A81AB81BC81F80124819F
:201E80003581F9012389203139F4883FFFEF9F07A105B10590F417C0883F2FEF9207A2072F
:201EA0002FE0B20780F009C0F80186899789A08DB18D0097A105B10531F4C8010E94AD0757
:201EC00081115ECF2BCFF80186839783A087B18757CF41E084CF0E94BF1081119BCF1ECFDA
:201EE0004090BE045090BF046090C0047090C104461657066806790651F469877A878B8746
:201F00009C870E94C1109C858B857A8569859401AB01BC018091BB049091BC040E947C0739
:201F2000882309F4FBCEE12C82E0F82E73CF82899389A489B589218184159505A605B7058B
:201F400030F4428A538A648A758A20680BC08091B9049091BA04892B31F0A114B10419F07F
:201F60002068F8012183F801818183FD02C0C50106C0C8010E94090B8111F9CFCFCE629605
:201F80000FB6F894DEBF0FBECDBFDF91CF911F910F91FF90EF90DF90CF90BF90AF909F9041
:201FA0008F907F906F905F904F903F902F900895CF93DF931F92CDB7DEB7698341E050E020
:201FC000BE016F5F7F4F04960E94550E21E030E0019711F020E030E0C9010F90DF91CF9114
:201FE000089504960C94550EFB0101900020E9F7AF0141505109461B570B04960C94550E1F
:2020000061E08AE00E94B21661E08AE00E94791660E08CE00E94791661E08BE00E94791615
:2020200061E08DE00C94791692E080E0961728F4863019F0990F8F5FF9CF982F906A96951F
:202040009CBD80FD06C091E0863009F490E0892F01C080E08DBD08950F931F93CF938091C9
:20206000BD0480FF42C04091BE045091BF046091C0047091C10422EC34E08091BB04909159
:20208000BC040E947C07C82F811102C0C0E02EC08091BD0481FD06C08091BD048E7F80937A
:2020A000BD0424C08091C6068230B0F34091C2065091C3066091C4067091C5060091BE042C
:2020C0001091BF042091C0043091C104400F511F621F731F22EC34E08091BB049091BC04FC
:2020E0000E947C078111D8CFD1CFC1E08C2FCF911F910F910895CF92DF92EF92FF92CF93F3
:202100006B017C01C42F8091BE049091BF04A091C004B091C1048C159D05AE05BF0509F17D
:202120000E942C10811103C080E090E022C0C2FF0BC01092BD04C092BE04D092BF04E09220
:20214000C004F092C1040DC022EC34E0B701A6018091BB049091BC040E9415078111E9CF6D
:20216000E3CFC3708091BD048C2B8093BD0482EC94E0CF91FF90EF90DF90CF9008950C94C2
:202180002C108FEF9FEFDC018093BE049093BF04A093C004B093C1041092BD0408954250CE
:2021A000510961097109FC01028404C0440F551F661F771F0A94D2F783859485A585B685CB
:2021C000480F591F6A1F7B1FCB01BA0108958F929F92AF92BF92CF92DF92EF92FF920F937F
:2021E0001F93CF93DF93EC016A017B018901423051056105710508F455C08E819F81A885EA
:20220000B9850196A11DB11D84179507A607B70708F448C08B89803129F499278F2D7E2DAE
:202220006D2D0BC08032F1F5CB01BA0147E096958795779567954A95D1F78F849888A98899
:20224000BA88680D791D8A1D9B1D42E00E947B10009741F12B89203169F4DD24EE24FF2422
:20226000F601EE0FFF1FE80FF91F80819181A0E0B0E011C0E894C7F8DD24EE24FF24F601E1
:20228000EE0FFF1FEE0FFF1FE80FF91F80819181A281B381BF70F80180839183A283B383F5
:2022A00081E001C080E0DF91CF911F910F91FF90EF90DF90CF90BF90AF909F908F90089527
:2022C0008F929F92AF92BF92CF92DF92EF92FF920F931F93CF93DF93EC016A017B014801F1
:2022E0005901423051056105710508F44EC04E815F81688579854F5F5F4F6F4F7F4F4C15F3
:202300005D056E057F0508F440C08B89803129F499278F2D7E2D6D2D0BC08032B1F5C701DA
:20232000B601E7E09695879577956795EA95D1F70F85188929893A89600F711F821F931F8D
:2023400043E00E947B10009701F12B89203159F4DD24EE24FF24F601EE0FFF1FE80FF91FFB
:202360009182808210C0E894C7F8DD24EE24FF24F601EE0FFF1FEE0FFF1FE80FF91F8082C9
:202380009182A282B38281E001C080E0DF91CF911F910F91FF90EF90DF90CF90BF90AF90C5
:2023A0009F908F9008952F923F924F925F926F927F928F929F92AF92BF92CF92DF92EF9285
:2023C000FF920F931F93CF93DF93CDB7DEB72F970FB6F894DEBF0FBECDBF1C014B875C874C
:2023E0006D877E873A872987DC0116960D911D912D913C9119970F5F1F4F2F4F3F4F0D83EB
:202400001E832F833887E985FA8580809180A280B38081149104A104B10439F0FFEF8F1A13
:202420009F0AAF0ABF0A1F8607C0DC018D909D90AD90BC9001E00F8775016401412C512C19
:202440003201F10186819781A085B185481659066A067B0608F05FC00D811E812F8138857E
:202460000C151D052E053F0550F4A2E0CA2ED12CE12CF12CB2E08B2E912CA12CB12C9E016C
:202480002F5F3F4FB701A601C1010E94E710882309F441C049815A816B817C81D701C60190
:2024A0000196A11DB11D452B462B472B49F08C149D04AE04BF0409F01F864C015D010FC09F
:2024C000AC01BD01481959096A097B090B851C852D853E85401751076207730741F01FEF60
:2024E000411A510A610A710A6C017D01AACF0F85002329F0F10180839183A283B3830FEFAA
:202500001FEF2FEF3FE0B701A601C1010E9460118D83811114C01D8231C026013701F1E006
:202520004F1A51086108710897018601B301A201C1010E946011882371F3730162018C1426
:202540009D04AE04BF0448F3A985BA854D915D916D917C91411551056105710539F4E985C3
:20256000FA8580829182A282B38208C095018401C1010E9460118111F2CFCDCF8D812F96F4
:202580000FB6F894DEBF0FBECDBFDF91CF911F910F91FF90EF90DF90CF90BF90AF909F903B
:2025A0008F907F906F905F904F903F902F900895AF92BF92CF92DF92EF92FF920F931F932B
:2025C000CF93DF9300D000D0CDB7DEB75C016A017B019E012F5F3F4FB701A601C5010E94A8
:2025E000E710811102C080E032C000E010E09801B701A601C5010E9460118823A1F3F50168
:2026000080819181A281B381C816D906EA06FB0620F4C082D182E282F382C980DA80EB8012
:20262000FC80F5018389803149F481E0F8EFCF16FFEFDF06E104F10450F4CBCF81E098EF8E
:20264000C9169FEFD906E9069FE0F90610F20F900F900F900F90DF91CF911F910F91FF9094
:20266000EF90DF90CF90BF90AF9008958F929F92AF92BF92CF92DF92EF92FF920F931F93C6
:20268000CF93DF93EC01142F7093BC046093BB041B8A82E090E0A0E0B0E088839983AA83E6
:2026A000BB831092BD048FEF9FEFDC018093BE049093BF04A093C004B093C104442311F16D
:2026C000453008F0BFC040E060E070E0CB010E947B10009709F4B6C0FC0120E1129FE00DBF
:2026E000F11D1124E255FE4F80818F7709F0AAC0C084D184E284F384C114D104E104F104AF
:2027000021F4A0C0C12CD12C760140E0C701B6010E947B10FC01009709F494C08385948511
:202720008115924009F08EC02089222309F48AC086859785892B09F485C02093C60635855F
:202740003C838FEF830F8D831A8688E090E021E0321741F0220F019709F474C04A854F5F30
:202760004A87F6CF268937892115310519F040E050E004C024A135A146A157A12093C206D6
:202780003093C3064093C4065093C5068685978546015701880E991EA11CB11C8F86988A8E
:2027A000A98ABA8A018912891D8B0C8BA089B0E00E948017680D791D8A1D9B1D6E8B7F8BDF
:2027C000888F998F25E0000F111F2A95E1F701501E4F012F11270695DC01CB01800F911F36
:2027E000A11DB11D8B879C87AD87BE87038914890115110519F020E030E004C000A111A11A
:2028000022A133A1B701A601481B590B6A0B7B0BDB01CA01800F911FA21FB31F0A8404C035
:20282000B695A795979587950A94D2F78E839F83A887B987853F5FE09507A105B10520F4B1
:202840008CE08B8B80E012C0853F9F4FA105B10510F480E109C084A595A5A6A5B7A58E8B65
:202860009F8BA88FB98F80E28B8B81E0DF91CF911F910F91FF90EF90DF90CF90BF90AF904C
:202880009F908F900895FC014FB7F8942281338184819581281B390B4FBF37FF05C08681B5
:2028A0009781820F931F0895C9010895FC01848195812281338128173907B9F09C012F5FF7
:2028C0003F4FA081B181A80FB91F8C91DB018C93868197812817390718F080E090E001C039
:2028E000C9019583848381E0089580E00895EF92FF920F931F93CF93DF938C01CB01F894D5
:20290000F801C281D3817894F801E480F580CE15DF0518F4C681D78103C0EC16FD06E8F433
:20292000CE19DF094C175D0708F4EA01F801608171816E0D7F1DAE010E94B417EC0EFD1E06
:20294000F80186819781E816F90610F0E81AF90AF801F582E482CE0102C080E090E0DF91B6
:20296000CF911F910F91FF90EF900895FC0171836083578346831582148213821282089592
:20298000FC0122813381848195812817390751F0848195810190F081E02DE80FF91F8081CE
:2029A00090E008958FEF9FEF0895FC0122813381C9010196A081B181A20FB31F6C93268130
:2029C00037818217930710F080E090E0248135818217930721F09383828381E0089580E024
:2029E00008951F920F920FB60F9211242F933F934F935F936F937F938F939F93AF93BF93E9
:202A0000CF93EF93FF93C091C000CC716091C6008FEC96E00E94D514811101C0C16080913A
:202A2000D7068C2B8093D706FF91EF91CF91BF91AF919F918F917F916F915F914F913F9112
:202A40002F910F900FBE0F901F9018951F920F920FB60F9211242F933F934F935F936F93F8
:202A60007F938F939F93AF93BF93EF93FF93CF93DF931F92CDB7DEB7BE016F5F7F4F87ECDC
:202A800096E00E945614882321F089818093C60005C08091C1008F7D8093C1000F90DF918F
:202AA000CF91FF91EF91BF91AF919F918F917F916F915F914F913F912F910F900FBE0F904B
:202AC0001F9018951F920F920FB60F9211242F933F938F939F93AF93BF938091D906909120
:202AE000DA06A091DB06B091DC063091D80623E0230F2D3720F40196A11DB11D05C026E87F
:202B0000230F0296A11DB11D2093D8068093D9069093DA06A093DB06B093DC068091DD06AC
:202B20009091DE06A091DF06B091E0060196A11DB11D8093DD069093DE06A093DF06B093D8
:202B4000E006BF91AF919F918F913F912F910F900FBE0F901F9018952FB7F8946091D90676
:202B60007091DA068091DB069091DC062FBF08953FB7F8948091DD069091DE06A091DF0663
:202B8000B091E00626B5A89B05C02F3F19F00196A11DB11D3FBF6627782F892F9A2F620F6D
:202BA000711D811D911D42E0660F771F881F991F4A95D1F708958F929F92AF92BF92CF9226
:202BC000DF92EF92FF926B017C010E94B8154B015C01C114D104E104F104F1F00E945D17F6
:202BE0000E94B815681979098A099B09683E73408105910570F321E0C21AD108E108F108BC
:202C000088EE880E83E0981EA11CB11CC114D104E104F10429F7DDCFFF90EF90DF90CF90D9
:202C2000BF90AF909F908F900895789484B5826084BD84B5816084BD85B5826085BD85B5C0
:202C4000816085BDEEE6F0E0808181608083E1E8F0E01082808182608083808181608083D2
:202C6000E0E8F0E0808181608083E1EBF0E0808184608083E0EBF0E0808181608083EAE702
:202C8000F0E08081846080838081826080838081816080838081806880831092C1000895C5
:202CA000833081F028F4813099F08230A1F008958730A9F08830B9F08430D1F480918000FF
:202CC0008F7D03C0809180008F7780938000089584B58F7702C084B58F7D84BD0895809129
:202CE000B0008F7703C08091B0008F7D8093B0000895CF93DF9390E0FC01E554FF4F2491B1
:202D0000FC01E153FF4F8491882349F190E0880F991FFC01E351FF4FA591B4918D519F4FB5
:202D2000FC01C591D4919FB7611108C0F8948C91209582238C93888182230AC0623051F4DA
:202D4000F8948C91322F309583238C938881822B888304C0F8948C91822B8C939FBFDF9117
:202D6000CF9108950F931F93CF93DF931F92CDB7DEB7282F30E0F901E955FF4F8491F90168
:202D8000E554FF4F1491F901E153FF4F04910023C9F0882321F069830E9450166981E02F71
:202DA000F0E0EE0FFF1FED51FF4FA591B4919FB7F8948C91611103C01095812301C0812B37
:202DC0008C939FBF0F90DF91CF911F910F910895CF92DF92EF92FF920F931F93CF93DF930E
:202DE0007C016A01EB0100E010E00C151D0571F06991D701ED91FC910190F081E02DC701D7
:202E00000995892B19F00F5F1F4FEFCFC801DF91CF911F910F91FF90EF90DF90CF9008955B
:202E20006115710581F0DB010D900020E9F7AD0141505109461B570BDC01ED91FC910280F6
:202E4000F381E02D099480E090E00895EF92FF920F931F93CF93DF938C017B01C0E0D0E054
:202E6000F701EC0FFD1F6491662359F0F801A081B181ED91FC91C8010995892B11F0219652
:202E8000EFCFCE01DF91CF911F910F91FF90EF90089566E271E00C94101708950E94151610
:202EA0000E944D170E94C504C0E0D0E00E94B1022097E1F30E940000F9CF0895A1E21A2E9F
:202EC000AA1BBB1BFD010DC0AA1FBB1FEE1FFF1FA217B307E407F50720F0A21BB30BE40BEA
:202EE000F50B661F771F881F991F1A9469F760957095809590959B01AC01BD01CF010895A2
:202F00000E949117A59F900DB49F900DA49F800D911D11240895EE0FFF1F0590F491E02D04
:202F20000994A29FB001B39FC001A39F700D811D1124911DB29F700D811D1124911D0895C3
:202F4000FB01DC0105900D920020E1F70895FB01DC0104C08D910190801921F441505040B4
:202F6000C8F7881B990B0895FB01DC0102C001900D9241505040D8F70895AEE0B0E0E3EC69
:202F8000F7E10C947B1A0D891E898EE08C831A8309838FEF9FE79E838D83AE01475E5F4F0A
:202FA0006F89788DCE0101960E94DF17EF81F885E00FF11F10822E96E4E00C94971AACE033
:202FC000B0E0E5EEF7E10C946D1A7C016B018A01FC0117821682838181FFBDC1CE01019685
:202FE0004C01F7019381F60193FD859193FF81916F01882309F4ABC1853239F493FD859129
:2030000093FF81916F01853229F4B70190E00E94DD19E7CF512C312C20E02032A0F48B32D5
:2030200069F030F4803259F0833269F420612CC08D3239F0803339F4216026C02260246064
:2030400023C0286021C027FD27C030ED380F3A3078F426FF06C0FAE05F9E300D1124532E2A
:2030600013C08AE0389E300D1124332E20620CC08E3221F426FD6BC1206406C08C3611F4E7
:20308000206802C0883641F4F60193FD859193FF81916F018111C1CF982F9F7D9554933091
:2030A00028F40C5F1F4FFFE3F9830DC0833631F0833771F0833509F05BC022C0F801808153
:2030C00089830E5F1F4F44244394512C540115C03801F2E06F0E711CF801A080B18026FF9F
:2030E00003C0652D70E002C06FEF7FEFC5012C870E94D2192C0183012C852F77222E17C068
:203100003801F2E06F0E711CF801A080B18026FF03C0652D70E002C06FEF7FEFC5012C877F
:203120000E94C7192C012C852068222E830123FC1BC0832D90E048165906B0F4B70180E23E
:2031400090E00E94DD193A94F4CFF50127FC859127FE81915F01B70190E00E94DD1931100F
:203160003A94F1E04F1A51084114510471F7E5C0843611F0893639F5F80127FF07C06081C8
:203180007181828193810C5F1F4F08C060817181882777FD8095982F0E5F1F4F2F76B22E53
:2031A00097FF09C090958095709561957F4F8F4F9F4F2068B22E2AE030E0A4010E940F1AEF
:2031C000A82EA81844C0853729F42F7EB22E2AE030E025C0F22FF97FBF2E8F36C1F018F4E8
:2031E000883579F0B4C0803719F0883721F0AFC02F2F2061B22EB4FE0DC08B2D8460B82E76
:2032000009C024FF0AC09F2F9660B92E06C028E030E005C020E130E002C020E132E0F801CB
:20322000B7FE07C060817181828193810C5F1F4F06C06081718180E090E00E5F1F4FA40166
:203240000E940F1AA82EA818FB2DFF77BF2EB6FE0BC02B2D2E7FA51450F4B4FE0AC0B2FCD7
:2032600008C02B2D2E7E05C07A2C2B2D03C07A2C01C0752C24FF0DC0FE01EA0DF11D8081FF
:20328000803311F4297E09C022FF06C07394739404C0822F867809F0739423FD13C020FF8C
:2032A00006C05A2C731418F4530C5718732C731468F4B70180E290E02C870E94DD19739403
:2032C0002C85F5CF731410F4371801C0312C24FF12C0B70180E390E02C870E94DD192C8505
:2032E00022FF17C021FF03C088E590E002C088E790E0B7010CC0822F867859F021FD02C019
:2033000080E201C08BE227FD8DE2B70190E00E94DD19A51438F4B70180E390E00E94DD19C2
:203320005A94F7CFAA94F401EA0DF11D8081B70190E00E94DD19A110F5CF332009F451CEFC
:20334000B70180E290E00E94DD193A94F6CFF7018681978102C08FEF9FEF2C96E2E10C94AE
:20336000891AF999FECF92BD81BDF89A992780B50895262FF999FECF1FBA92BD81BD20BDA3
:203380000FB6F894FA9AF99A0FBE01960895FC010590615070400110D8F7809590958E0F0A
:2033A0009F1F0895FC016150704001900110D8F7809590958E0F9F1F08950F931F93CF93FB
:2033C000DF93182F092FEB018B8181FD03C08FEF9FEF20C082FF10C04E815F812C813D816C
:2033E000421753077CF4E881F9819F012F5F3F4F39832883108306C0E885F985812F099512
:20340000892B29F72E813F812F5F3F4F3F832E83812F902FDF91CF911F910F910895FA01B3
:20342000AA27283051F1203181F1E8946F936E7F6E5F7F4F8F4F9F4FAF4FB1E03ED0B4E05B
:203440003CD0670F781F891F9A1FA11D680F791F8A1F911DA11D6A0F711D811D911DA11DFF
:2034600020D009F468943F912AE0269F11243019305D3193DEF6CF010895462F4770405DEB
:203480004193B3E00FD0C9F7F6CF462F4F70405D4A3318F0495D31FD4052419302D0A9F75F
:2034A000EACFB4E0A6959795879577956795BA95C9F700976105710508959B01AC010A2E94
:2034C00006945795479537952795BA95C9F7620F731F841F951FA01D08952F923F924F92CC
:2034E0005F926F927F928F929F92AF92BF92CF92DF92EF92FF920F931F93CF93DF93CDB755
:20350000DEB7CA1BDB0B0FB6F894DEBF0FBECDBF09942A88398848885F846E847D848C843E
:203520009B84AA84B984C884DF80EE80FD800C811B81AA81B981CE0FD11D0FB6F894DEBF24
:203540000FBECDBFED010895F894FFCF0000E106800000000000A800B100F100DA00F500AD
:20356000D600000000007205E81600000000D80FD7000D0A006E616E00696E66006F766666
:20358000002E0000FFFFFFFFFFFFFFFFFFFFFFFFFFFFFFFFFFFFFFFFFFFFFFFFFFFFFFFF19
:2035A000FFFFFFFFFFFFFFFFFFFFFFFFFFFFFFFFFFFFFFFFFFFFFFFFFFFFFFFFFFFFFFFF2B
:2035C000FFFFFFFFFFFFFFFFFFFFFFFFFFFFFFFFFFFFFFFFFFFFFFFFFFFFFFFFFFFFFFFF0B
:2035E000FFFFFFFFFFFFFFFFFFFFFFFFFFFFFFFFFFFFFFFFFFFFFFFFFFFFFFFFFFFFFFFFEB
:20360000FFFFFFFFFFFFFFFFFFFFFFFFFFFFFFFFFFFFFFFFFFFFFFFFFFFFFFFFFFFFFFFFCA
:207E0000112484B714BE81FFF0D085E08093810082E08093C00088E18093C10086E08093FC
:207E2000C20080E18093C4008EE0C9D0259A86E020E33CEF91E0309385002093840096BBAD
:207E4000B09BFECF1D9AA8958150A9F7CC24DD2488248394B5E0AB2EA1E19A2EF3E0BF2E79
:207E6000A2D0813461F49FD0082FAFD0023811F0013811F484E001C083E08DD089C0823404
:207E800011F484E103C0853419F485E0A6D080C0853579F488D0E82EFF2485D0082F10E0A0
:207EA000102F00270E291F29000F111F8ED068016FC0863521F484E090D080E0DECF84364D
:207EC00009F040C070D06FD0082F6DD080E0C81680E7D80618F4F601B7BEE895C0E0D1E0ED
:207EE00062D089930C17E1F7F0E0CF16F0E7DF0618F0F601B7BEE89568D007B600FCFDCF1A
:207F0000A601A0E0B1E02C9130E011968C91119790E0982F8827822B932B1296FA010C016F
:207F200087BEE89511244E5F5F4FF1E0A038BF0751F7F601A7BEE89507B600FCFDCF97BE85
:207F4000E89526C08437B1F42ED02DD0F82E2BD03CD0F601EF2C8F010F5F1F4F84911BD0B8
:207F6000EA94F801C1F70894C11CD11CFA94CF0CD11C0EC0853739F428D08EE10CD085E9AE
:207F80000AD08FE07ACF813511F488E018D01DD080E101D065CF982F8091C00085FFFCCF0A
:207FA0009093C60008958091C00087FFFCCF8091C00084FD01C0A8958091C6000895E0E68F
:207FC000F0E098E1908380830895EDDF803219F088E0F5DFFFCF84E1DECF1F93182FE3DF47
:207FE0001150E9F7F2DF1F91089580E0E8DFEE27FF270994FFFFFFFFFFFFFFFFFFFF040425
:00000001FF
